:103BAF007F147E007D007C00123645122AD280FEE3
:1036DF008F1E8E1D8D1C8C1B538EF7438901D28C30
:1036EF00E4FFFEFDFCAB1EAA1DA91CA81BC31225DF
:1036FF00B66025758A7E758CFF308DFDC28DE51EF7
:10370F0024FFF51EE51D34FFF51DE51C34FFF51CE8
:0B371F00E51B34FFF51B80C8C28C22A4
:10372A008F5B8E5A8D598C58538EF7438901D28CF0
:10373A00E4FFFEFDFCAB5BAA5AA959A858C312259F
:10374A00B66025758ACA758CFA308DFDC28DE55B27
:10375A0024FFF55BE55A34FFF55AE55934FFF5596C
:0B376A00E55834FFF55880C8C28C22DF
:103775008F5F8E5E8D5D8C5C538EEF438910D28E8C
:10378500E4FFFEFDFCAB5FAA5EA95DA85CC3122544
:10379500B66025758BEA758DCB308FFDC28FE55FE1
:1037A50024FFF55FE55E34FFF55EE55D34FFF55D0D
:0B37B500E55C34FFF55C80C8C28E228A
:1035F7008F638E628D618C6053C9BF53C9DF43C926
:1036070010D2CAE4FFFEFDFCAB63AA62A961A86001
:10361700C31225B6602575CC3075CDF830CFFDC205
:10362700CFE56324FFF563E56234FFF562E56134B6
:0E363700FFF561E56034FFF56080C8C2CA226D
:103645008F0B8E0A8D098C0875C40743C408E4FFE7
:10365500FEFDFCAB0BAA0AA909A808C31225B66092
:103665002875C52C75C6CFE5C430E4FB53C4EFE51A
:103675000B24FFF50BE50A34FFF50AE50934FFF5E0
:0D36850009E50834FFF50880C553C4F7229D
:103692008F678E668D658C6475C40743C408E4FF2A
:1036A200FEFDFCAB67AA66A965A864C31225B660D5
:1036B2002875C5D875C6FFE5C430E4FB53C4EFE5F1
:1036C2006724FFF567E56634FFF566E56534FFF5C7
:0D36D20065E56434FFF56480C553C4F7223C
:1038C20053B1BF53B2BF53B17F53B27F75985043C8
:1038D2008920438780438E1053C4DFAB07AA06A911
:1038E20005A8047F407E427D0F7C00122524EF0450
:0938F200F404F58DD28ED2992266
:10352A008F6B8E6A8D698C6853B1BF53B2BF53B12A
:10353A007F53B27F75985043878053C4F843C420A1
:10354A00AB6BAA6AA969A8687F407E427D0F7C009E
:10355A00122524C374FF9FFF74FF9EFEE49DFDE4C1
:10356A009CFC78081225C78FC6AB6BAA6AA969A802
:10357A00687F407E427D0F7C00122524C374FF9F22
:09358A00FF8FC543C408D2992249
:070003003098FDAF99C2988F
:01000A0022D3
:083BF400C2998F993099FD225E
:103593008F6F8E6E8D6D8C6C53B1FB53B2FB53B337
:1035A300BF53B4BF75F85075C40853C4DFAB6FAADB
:1035B3006EA96DA86C7F407E427D0F7C001225248E
:1035C300C374FF9FFF74FF9EFEE49DFDE49CFC78A3
:1035D300081225C78FC6AB6FAA6EA96DA86C7F4072
:1035E3007E427D0F7C00122524C374FF9FFF8FC58D
:0435F30043C40822A3
:073BFC0030F8FDAF9AC2F89A
:013C0300229E
:083C0400C2F98F9A30F9FD228C
:030000000233A028
:1033A00075C7AA75C75575FD5A75C7AA75C75575EE
:1033B000FDA5787FE4F6D8FD9000007FFF7E03E452
:0C33C000F0A3DFFCDEFA75816F02340719
:103B530053B1FE43B20153B3FE43B40175F313757E
:063B6300F40843F34022C8
:0D3BCE0053F47F8FF5E5F430E7FBAFF522EF
:043BBF00D2937F0519
:0A3BC300E4FEEEC39F50030E80F8ED
:013BCD0022D5
:103B7C0053B3F753B4F753B3EF53B4EFD294D29388
:013B8C002216
:0D3BDB00123BBFC294123BC3C293023BC316
:103B8D00C2947F05123BC3D293123BC3D294023B26
:013B9D00C364
:0237C000AD0753
:1037C200E4FCED30E704D2948002C2947F02123B03
:1037D200C3123BBFC2937F03123BC3ED25E0FD0C36
:1037E200BC08DF7F02123BC3D294123BBF30940865
:1037F200C293123BC37F0122C2937F05123BC37F58
:0138020000C5
:0138030022A2
:02388800AD078A
:10388A00E4FCFBEC25E0FC123BBF3094034304014B
:10389A00C2937F05123BC30BBB08E8ED6004D294C8
:1038AA008002C2947F05123BC3D293123BC3C293D8
:0738BA00D294123BC3AF04DE
:0138C10022E4
:103B2F00123B5353B1EF43B21053B1F743B20853A3
:103B3F00B1FB43B20453B3FB43B404D292C284C269
:043B4F0083C2822289
:103A8B00C284C283C282E4F51F7460251FF582E4F1
:103A9B003402F583E0FF123BCE051FE51FC39410E4
:093AAB0040E7C292D292D28422BB
:103AB400C284D283C282E4F51F7470251FF582E4A8
:103AC4003402F583E0FF123BCE051FE51FC39410BB
:093AD40040E7C292D292D2842292
:103ADD00C284C283D282E4F51F7480251FF582E46F
:103AED003402F583E0FF123BCE051FE51FC3941092
:093AFD0040E7C292D292D2842269
:103B0600C284D283D282E4F51F7490251FF582E425
:103B16003402F583E0FF123BCE051FE51FC3941068
:093B260040E7C292D292D284223F
:013C0F002292
:101325009000301224A9F4900260F090002012245D
:10133500A9F4900261F09000101224A9F4900262C1
:10134500F0122490F4900263F09000311224A9F475
:10135500900264F09000211224A9F4900265F090A7
:1013650000111224A9F4900266F09000011224A93C
:10137500F4900267F09000321224A9F4900268F00C
:101385009000221224A9F4900269F0900012122410
:10139500A9F490026AF09000021224A9F490026B5D
:1013A500F09000331224A9F490026CF090002312FF
:1013B50024A9F490026DF09000131224A9F4900270
:1013C5006EF09000031224A9F490026FF09000349F
:1013D5001224A9F4900270F09000241224A9F4902C
:1013E5000271F09000141224A9F4900272F090009A
:1013F500041224A9F4900273F09000351224A9F484
:10140500900274F09000251224A9F4900275F090D2
:1014150000151224A9F4900276F09000051224A973
:10142500F4900277F09000361224A9F4900278F037
:101435009000261224A9F4900279F0900016122447
:10144500A9F490027AF09000061224A9F490027B88
:10145500F09000371224A9F490027CF09000271236
:1014650024A9F490027DF09000171224A9F49002AB
:101475007EF09000071224A9F490027FF0900038C6
:101485001224A9F4900280F09000281224A9F49067
:101495000281F09000181224A9F4900282F09000C5
:1014A500081224A9F4900283F09000391224A9F4BB
:1014B500900284F09000291224A9F4900285F090FE
:1014C50000191224A9F4900286F09000091224A9AB
:1014D500F4900287F090003A1224A9F4900288F063
:1014E50090002A1224A9F4900289F090001A12247F
:1014F500A9F490028AF090000A1224A9F490028BB4
:10150500F090003B1224A9F490028CF090002B126D
:1015150024A9F490028DF090001B1224A9F49002E6
:101525008EF090000B1224A9F490028FF090003CED
:101535001224A9F4900290F090002C1224A9F490A2
:101545000291F090001C1224A9F4900292F09000F0
:101555000C1224A9F4900293F090003D1224A9F4F2
:10156500900294F090002D1224A9F4900295F09029
:10157500001D1224A9F4900296F090000D1224A9E2
:10158500F4900297F090003E1224A9F4900298F08E
:1015950090002E1224A9F4900299F090001E1224B6
:1015A500A9F490029AF090000E1224A9F490029BDF
:1015B500F090003F1224A9F490029CF090002F12A5
:1015C50024A9F490029DF090001F1224A9F4900222
:0E15D5009EF090000F1224A9F490029FF022C5
:033C0C00C284224D
:10396A00C3C1BFBCBAB7B4B2AFADAAA7A4A29F9C49
:10397A00999693918E8B888582807D7A7774726FFF
:10398A006C6A676562605D5B58565452504D4B498C
:03399A004745435B
:101A0500013200013900013700014A00014300019C
:101A15003B00012D32012132012232013C000244FA
:101A25000000015300014B00012300013400014176
:101A350000013E00013D0001380001270202280097
:101A450000014919015200619000400000000000AA
:101A55000000000000000000000000000000000081
:101A65000000000000000000000048000000000029
:101A7500000000000000000000000000008470E08D
:101A8500428508E03908E211C00318C6318C678821
:101A9500006309E6318CF10010BEFBC04C238710B2
:101AA500A142387211C42380E1C63000000000C491
:101AB500891042858910450913122004A529425031
:101AC5009098009499084A121300108822209624B1
:101AD5004890A162448A1226244112263000000053
:101AE50000A5020842854A00810A0A940004A52936
:101AF50042509108009489084A1221001088222436
:101B050095281050A1528102141528020415500081
:101B1500000000953A087E852A70810A0A54E0047F
:101B25009CC771DC7108009389CE3B8E21001F880C
:101B3500222494A9D05FA14A9D021414A9C20415B8
:101B450050000000008D0A0842851A10810A0A34E7
:101B55002184852148521208309088290A4241067D
:101B6500108823C094685050A14685021414684219
:101B7500041490000000008489104285091045096D
:101B850012122004852148521208009088290A4221
:101B950041001088220494244890A142448A1224CA
:101BA5002449122490000000008478E0427908F06E
:101BB50038F0E211E00318C6318C641C00631DC6C1
:101BC500318C8380108822052423C7109E423C71E6
:101BD500E1C423C8E1C41000000000014200012552
:101BE50000014800012F00013600012A00013300E1
:031BF500012C00C0
:103A3100EFC4F8540FC868FFEEC454F048FEC374D5
:103A4100FF9FF55674FF9EF55585568BE555F55646
:103A510075550085568DD28E308FFDC28EC28F2254
:1034BE00C2EFD2EE30EFFDAFC3EF2529F529E4358B
:1034CE0028F5280552E55264087050F552E529AEEC
:1034DE00287803CEC313CE13D8F9F5298E28F557C5
:1034EE00E4F528F52990396A93FFE557C39F400408
:1034FE00E4F5492290399CE493FFE557D39F50049D
:10350E0075493222E4FFEF90396A93FEE557D39E58
:0B351E004005EF14F549220FBF33EB0E
:01352900227F
:100C6900E4FEE4FFEE75F003A4245EF582E43401AA
:100C7900F583E5822FF582E43583F583E493FD75E9
:100C8900F032EEA42440F582E5F03400F583E582E4
:100C99002FF582E43583F583EDF00FBF03C60EBE51
:100CA90008C0E4FEEE9000FE93FD75F032EEA42438
:100CB90043F582E5F03400F583EDF00EBE08E5E476
:100CC900FEE4FF75F032EEA42444F582E5F0340029
:100CD900F583E5822FF582E43583F583E4F00FBFD0
:100CE90002E10EBE08DBE4FEEE9000FE93FD75F016
:100CF90032EEA42446F582E5F03400F583EDF00EDA
:100D0900BE08E5E4FEEE9000FE93FD75F032EEA418
:100D19002447F582E5F03400F583EDF00EBE08E5D1
:100D2900E4FEEE9001C693FD75F032EEA42448F579
:100D390082E5F03400F583EDF00EBE08E5E4FEEE41
:100D49009000F693FD75F032EEA42449F582E5F0A2
:100D59003400F583EDF00EBE08E5E4FEEE9000FEEA
:100D690093FD75F032EEA4244AF582E5F03400F5DE
:100D790083EDF00EBE08E5E4FEEE9001C693FD7525
:100D8900F032EEA4244BF582E5F03400F583EDF062
:100D99000EBE08E5E4FEEE9000FE93FD75F032EE1E
:100DA900A4244CF582E5F03400F583EDF00EBE087D
:100DB900E5E4FEEE9000EE93FD75F032EEA4244DCD
:100DC900F582E5F03400F583EDF00EBE08E5E4FEAA
:100DD900EE9000F693FD75F032EEA4244EF582E50F
:100DE900F03400F583EDF00EBE08E5E4FEEE900167
:100DF9002693FD75F032EEA4244FF582E5F0340018
:100E0900F583EDF00EBE08E5E4FEE4FF75F032EE81
:100E1900A42450F582E5F03400F583E5822FF582AC
:100E2900E43583F583E4F00FBF02E10EBE08DBE48D
:100E3900FEE4FFEE25E025E024CEF582E43401F559
:100E490083E5822FF582E43583F583E493FD75F01C
:100E590032EEA42452F582E5F03400F583E5822FC1
:100E6900F582E43583F583EDF00FBF04C60EBE08A5
:100E7900C0E4FE75F032EEA42456F582E5F03400A4
:100E8900F583E4F00EBE08EBE4FEEE9000F693FD68
:100E990075F032EEA42457F582E5F03400F583EDC0
:100EA900F00EBE08E5E4FEEE9000EE93FD75F0321B
:100EB900EEA42458F582E5F03400F583EDF00EBE7A
:100EC90008E5E4FEEE9001C693FD75F032EEA42428
:100ED90059F582E5F03400F583EDF00EBE08E5E43E
:100EE900FEEE9000EE93FD75F032EEA4245AF582E1
:100EF900E5F03400F583EDF00EBE08E5E4FEEE9072
:100F0900010693FD75F032EEA4245BF582E5F03419
:100F190000F583EDF00EBE08E5E4FEEE9001C69300
:100F2900FD75F032EEA4245CF582E5F03400F5831A
:100F3900EDF00EBE08E5E4FEEE9000FE93FD75F0BF
:100F490032EEA4245DF582E5F03400F583EDF00E70
:100F5900BE08E5E4FEEE9000EE93FD75F032EEA4D6
:100F6900245EF582E5F03400F583EDF00EBE08E568
:100F7900E4FEEE9000F693FD75F032EEA4245FF5E1
:100F890082E5F03400F583EDF00EBE08E5E4FEEEEF
:100F990090012693FD75F032EEA42460F582E5F008
:100FA9003400F583EDF00EBE08E5E4FEE4FF75F0CC
:100FB90032EEA42461F582E5F03400F583E5822F51
:100FC900F582E43583F583E4F00FBF02E10EBE0834
:100FD900DBE4FEEE9000FE93FD75F032EEA424638F
:100FE900F582E5F03400F583EDF00EBE08E5E4FE88
:100FF900EE9000FE93FD75F032EEA42464F582E5CF
:10100900F03400F583EDF00EBE08E5E4FEE4FFEEF2
:1010190025E024EEF582E43401F583E5822FF5829B
:10102900E43583F583E493FD75F032EEA42465F588
:1010390082E5F03400F583E5822FF582E43583F506
:0B10490083EDF00FBF02C80EBE08C20E
:011054002279
:10393400AF37123B9EEFC3940650037F0022AF378C
:10394400123B9EEFD3954E40037F0022AF37123BCC
:103954009EEFB54E0EAF39123B9EEFC39551400317
:063964007F00227F01221A
:102AD200123B2F120C6953B3DF53B4DF53B3BF530E
:102AE200B4BF53B37F53B47F53ACFE53ADFED28514
:102AF200D286D287D2B0123B7C123BDB7FD0123718
:102B0200C0E4FF1237C0123BDB7FD11237C0E4FFB3
:102B12001238888F32E4FF123888E4FF1238888F27
:102B220037E4FF123888E4FF123888E4FF1238884D
:102B3200E4FF123888E4FF123888E4FF1238888FE5
:102B420021E4FF1238888F4EE4FF1238888F51E457
:102B5200FF1238888F227F011238888F3CE54ED3CE
:102B620094174003754E13E551D3943B4003E4F5AB
:102B720051E522D394634003752263E521D3946324
:102B82004003752163123934EF600585212D8003DE
:102B920085222DE54ED394174003754E17E54EC39B
:102BA20094135003754E13E551D3943B4003E4F55F
:102BB20051123B8D53E8F043B38053B47FE4F5F6F2
:102BC20043F60143E101E53220E705E53730E61F30
:102BD200123BDB7FD01237C0E4FF1237C0E4FF1292
:102BE20037C0E4FF1237C0E4FF1237C0123B8D75C5
:102BF2008911758E18D2AFD2A9758CC0758A80D210
:0A2C02008C53B3FD43B402D29122BB
:10380400E4FFE4FEEF25E025E02486F582E43401BC
:10381400F583E5822EF582E43583F583E493FDEFA9
:1038240025E025E02400F582E43400F583E5822ECA
:10383400F582E43583F583EDF00EBE04C70FBF10A7
:01384400C1C2
:013845002260
:10344C00EF9000156036E04401F0900019E0440163
:10345C00F0900025E04401F0900029E04401F09048
:10346C000016E04480F090001AE04480F0900026B2
:10347C00E04480F090002AE04480F022E054FEF01A
:10348C00900019E054FEF0900025E054FEF09000FE
:10349C0029E054FEF0900016E0547FF090001AE002
:1034AC00547FF0900026E0547FF090002AE0547F87
:0234BC00F022FC
:103A6100123BDB7FD01237C0E4FF1237C0123BDBC1
:103A71007FD11237C0E4FF1238888F3253327FE48E
:0A3A8100FF1238888F3953397F2275
:10399D00E4FF1238888F3753373FE4FF1238888F92
:1039AD0035533507E4FF1238888F2653263FE4FF41
:1039BD001238888F2B532B1F7F011238888F2E02C0
:0239CD003B8D30
:103B9E00EF54F0C4540F75F00AA4FEEF540F2EFF2D
:013BAE0022F4
:103B6900EF75F00A84C454F0FEEF75F00A84E5F0AD
:033B79004EFF22DA
:1039CF00E4FFE4FEEF25E025E02400F582E4340077
:1039DF00F583E5822EF582E43583F583E4F00EBEA0
:1039EF0004E20FBF10DC7F109001D8E4F0A3DFFCDE
:0139FF0022A5
:103A00007F08E4FEEF25E025E02400F582E43400A1
:103A1000F583E5822EF582E43583F583E4F00EBE6E
:103A200004E20FBF10DC7F089001D0E4F0A3DFFCBC
:013A30002273
:10384600E4FFE4FEEF25E025E024AEF582E4340053
:10385600F583E5822EF582E43583F583E493FDEF67
:1038660025E025E02420F582E43400F583E5822E68
:10387600F582E43583F583EDF00EBE04C70FBF086D
:01388600C180
:01388700221E
:1030FE00E5375430C4540FFFE4FEEFC454F0240EF1
:10310E00F582E43400F583E5822EF582E43583F50D
:10311E0083E493FDEE25E025E02400F582E43400FF
:10312E00F583EDF00EBE10D2E537540FFFE4FEEF3F
:10313E00C454F0240EF582E43400F583E5822EF5B6
:10314E0082E43583F583E49325E0FDEE25E025E06A
:10315E002401F582E43400F583EDF00EBE10D0E5C7
:10316E00395470C4540FFFE4FEEFC454F0240EF52E
:10317E0082E43400F583E5822EF582E43583F5830F
:10318E00E493C313FDEE25E025E02402F582E4343A
:10319E0000F583EDF00EBE10D0E539540FFFE4FEBE
:1031AE00EFC454F0240EF582E43400F583E5822E4C
:1031BE00F582E43583F583E493FDEE25E025E024E6
:1031CE0003F582E43400F583EDF00EBE10D2E54A2D
:1031DE006532600F85324AE53B6005E4F53B8003BE
:0831EE00753B01AF3B02344CBC
:102F0A000548E54864086003023004F548FFE4FE1A
:102F1A00EF25E025E02420F582E43400F583E582FC
:102F2A002EF582E43583F583E025E0F0EF25E025F0
:102F3A00E02421F582E43400F583E5822EF582E46B
:102F4A003583F583E030E71CEF25E025E02420F502
:102F5A0082E43400F583E5822EF582E43583F58335
:102F6A00E04401F00EBE03A8EF25E025E02423F596
:102F7A0082E43400F583E025E0F074D02FF582E492
:102F8A003401F583E030E712EF25E025E02423F54C
:102F9A0082E43400F583E04401F074D02FF582E432
:102FAA003401F583E025E0F00FEF64086003022F97
:102FBA0018E525703BE542C394275032E49001D0CE
:102FCA00F0FF75F032EFA42440F582E5F03400F505
:102FDA0083E5822542F582E43583F583E0FE74D1E8
:102FEA002FF582E43401F583EEF00FBF07D40542D2
:0A2FFA000525E525B40803E4F525DC
:0130040022A9
:10285A00E54A6532600F85324AE53B6005E4F53B9F
:10286A008003753B01E5505430C4540FFFD39402E2
:10287A004002E4FFE4FEEF75F008A424EEF582E4DA
:10288A003400F583E5822EF582E43583F583E493FB
:10289A00131313541FFDEE25E025E02400F582E40E
:1028AA003400F583EDF00EBE08CCE550540FFFD38B
:1028BA0094094002E4FFE4FEEF75F008A424EEF563
:1028CA0082E43400F583E5822EF582E43583F583CC
:1028DA00E493C313FDEE25E025E02401F582E434F8
:1028EA0000F583EDF00EBE08CFE5545470C4540FC2
:1028FA00FFD394054002E4FFE4FEEF75F008A42438
:10290A00EEF582E43400F583E5822EF582E4358320
:10291A00F583E493131313541FFDEE25E025E024F9
:10292A0002F582E43400F583EDF00EBE08CCE554DE
:10293A00540FFFD394094002E4FFE4FEEF75F00858
:10294A00A424EEF582E43400F583E5822EF582E4D0
:10295A003583F583E493C313FDEE25E025E02403D4
:10296A00F582E43400F583EDF00EBE08CFE53B9026
:10297A00000E600CE04480F0900016E04480F022E3
:0B298A00E0547FF0900016E0547FF056
:01299500221F
:0C3BE8001232EE1229961225DA022D107E
:1032EE00208503052F22E52FD39405500302339C2E
:1032FE00E54B601564036011E54B6404600BE54B10
:10330E0064056005E54BB4061A754B01E4F523859B
:10331E00395485375085354F85263A852B3F852E76
:10332E0047806BE54B640170540523E523B4040319
:10333E0085212DE523B40706E4F523754B02E5231D
:10334E006405702CE53C600D123934EF6002800587
:10335E0085222D800385212DE52DD39463400375A1
:10336E002D01AF4E123B698F50AF51123B698F54F6
:10337E00E523B40619853C4C8522248011E54BB417
:10338E00020CE4F54BF544F545F553123A00E4F51D
:02339E002F22DC
:10299600208603053622E536D394055003022ACE57
:1029A600E54B64016003022ACEE523B40700400329
:1029B600022ACE9029C0F82828730229D50229FABE
:1029C600022A0E022A46022A7D022A8B022AC2E522
:1029D600505430C4540F75F00AA4FEE550540F2E1F
:1029E600FFD394174002E4FF0FEFD394174002E49D
:1029F600FF022AADE54F5407FF70027F010FBF08A3
:102A0600027F018F4F022ACEE53A5430C4540F7527
:102A1600F00AA4FFE53A540F2FFFD3941F40027F1C
:102A2600010FEFD3941F40027F01EF75F00A84C4B3
:102A360054F0FEEF75F00A84E5F04EF53A022ACE20
:102A4600E54754F0C4540F75F00AA4FFE547540F48
:102A56002FFFD394634002E4FF0FEFD39463400249
:102A6600E4FFEF75F00A84C454F0FEEF75F00A84B3
:102A7600E5F04EF5478051052DE52DD3946340488A
:102A8600752D018043E5505430C4540F75F00AA4E7
:102A9600FFE550540F2FFFD3941740027F130FEF1B
:102AA600D3941740027F13EF75F00A84C454F0FEE6
:102AB600EF75F00A84E5F04EF550800CE54C6005A4
:0B2AC600E4F54C8003754C01E4F5368C
:012AD10022E2
:1025DA00208703052A22E52AD394055003022716E9
:1025EA00E54B64016003022716E523B407004003A4
:1025FA00022716902604F828287302261902263E76
:10260A0002265202268A0226C30226D302270AE596
:10261A00545470C4540F75F00AA4FEE554540F2E96
:10262A00FFD3943B4002E4FF0FEFD3943B4002E414
:10263A00FF0226F5E54F5407FF70027F010FBF081E
:10264A00027F018F4F022716E53F5410C4540F75BD
:10265A00F00AA4FFE53F540F2FFFD3940C40027FEA
:10266A00010FEFD3940C40027F01EF75F00A84C486
:10267A0054F0FEEF75F00A84E5F04EF53F02271696
:10268A00E54754F0C4540F75F00AA4FFE547540F08
:10269A002FFFD394634002E4FFEFC3940150047FF9
:1026AA006380011FEF75F00A84C454F0FEEF75F0E1
:1026BA000A84E5F04EF5478053E52DD39401400492
:1026CA00152D8048752D638043E5545470C4540F0A
:1026DA0075F00AA4FFE554540F2FFFD3943B400230
:1026EA00E4FF0FEFD3943B4002E4FFEF75F00A8456
:1026FA00C454F0FEEF75F00A84E5F04EF554800CF0
:0F270A000524E524D394634003752401E4F52AE4
:01271900229D
:102D100020B003053322E533D394055003022E0976
:102D2000E54B64016003022E09E523B4070040036C
:102D3000022E09902D3AF8282873022D4F022D6695
:102D4000022D78022D8E022D9F022DBF022DE3123F
:102D50003BDB7FD01237C07F011237C0AF54123730
:102D6000C0AF50022DFD123BDB7FD01237C07F0376
:102D70001237C0AF4F022DFD123BDB7FD01237C0A0
:102D80007F041237C0AF3A1237C0AF3F806F123B9B
:102D9000DB7FD01237C07F061237C0AF47805E128C
:102DA0003BDB7FD01237C07F081237C0AF2D123700
:102DB000C0123B8D754B03E4F534852D21804AAF5D
:102DC00050123B9E8F4EAF54123B9E8F51123BDBF5
:102DD0007FD01237C07F091237C0AF4E1237C0AF55
:102DE00051801A852422854C3C123BDB7FD0123760
:102DF000C07F0B1237C0AF241237C0AF4C1237C0A0
:0D2E0000123B8D754B03E4F534E4F53322ED
:10209600E4FFE4FEEF25E025E024CEF582E43400FB
:1020A600F583E5822EF582E43583F583E493FDEF2F
:1020B60025E025E02400F582E43400F583E5822E50
:1020C600F582E43583F583EDF00EBE04C70FBF0835
:1020D600C1E5505430C4540FFED394024002E4FECE
:1020E600E4FFEE75F008A424EEF582E43400F583EF
:1020F600E5822FF582E43583F583E49313131354B5
:102106001FFDEF25E025E02420F582E43400F58369
:10211600EDF00FBF08CCE550540FFED394094002F2
:10212600E4FEE4FFEE75F008A424EEF582E4340044
:10213600F583E5822FF582E43583F583E493C313B3
:10214600FDEF25E025E02421F582E43400F583ED5A
:10215600F00FBF08CFE5545470C4540FFED3940556
:102166004002E4FEE4FFEE75F008A424EEF582E4F6
:102176003400F583E5822FF582E43583F583E49315
:10218600131313541FFDEF25E025E02422F582E406
:102196003400F583EDF00FBF08CCE554540FFED3A1
:1021A60094094002E4FEE4FFEE75F008A424EEF57F
:1021B60082E43400F583E5822FF582E43583F583E6
:1021C600E493C313FDEF25E025E02423F582E434F0
:1021D60000F583EDF00FBF08CF90002EE04480F0AD
:0721E600900036E04480F098
:0121ED0022CF
:102E0D00E4FEE4FFEE25E025E024CEF582E4340077
:102E1D00F583E5822FF582E43583F583E493FDEEAA
:102E2D0025E025E02400F582E43400F583E5822FCA
:102E3D00F582E43583F583EDF00FBF04C70EBE08B0
:102E4D00C1E54F5407FD70027D01ED64017041FE37
:102E5D00E4FFEE25E025E0243EF582E43401F58320
:102E6D00E5822FF582E43583F583E493FCEE25E0CE
:102E7D0025E02420F582E43400F583E5822FF582E8
:102E8D00E43583F583ECF00FBF04C70EBE08C122F5
:102E9D00E4FEE4FFEE75F003A4245EF582E4340154
:102EAD00F583E5822FF582E43583F583E493FCEE1B
:102EBD0025E025E02420F582E43400F583E5822F1A
:102ECD00F582E43583F583ECF00FBF03C7ED75F0A4
:102EDD0008A424EEF582E43400F583E5822EF58214
:102EED00E43583F583E493FCEE25E025E02423F51A
:0C2EFD0082E43400F583ECF00EBE089671
:012F090022A5
:10234600E4FFE4FEEF25E025E024CEF582E4340048
:10235600F583E5822EF582E43583F583E493FDEF7C
:1023660025E025E02400F582E43400F583E5822E9D
:10237600F582E43583F583EDF00EBE04C70FBF0882
:10238600C1E53A5430C4540FFEE4FFEE75F008A4DC
:1023960024EEF582E43400F583E5822FF582E435F8
:1023A60083F583E493131313541FFDEF25E025E013
:1023B6002420F582E43400F583EDF00FBF08CCE568
:1023C6003A540FFED394094002E4FEE4FFEE75F0A2
:1023D60008A424EEF582E43400F583E5822FF58225
:1023E600E43583F583E493C313FDEF25E025E0246C
:1023F60021F582E43400F583EDF00FBF08CFE53F09
:102406005410C4540FFEE4FFEE75F008A424EEF554
:1024160082E43400F583E5822FF582E43583F58383
:10242600E493131313541FFDEF25E025E02422F552
:1024360082E43400F583EDF00FBF08CCE53F540F7E
:10244600FED394094002E4FEE4FFEE75F008A424EE
:10245600EEF582E43400F583E5822FF582E43583D8
:10246600F583E493C313FDEF25E025E02423F582ED
:10247600E43400F583EDF00FBF08CF900032E0445E
:09248600C0F0900031E04401F0C7
:01248F00222A
:102C0C00E4FFE4FEEF25E025E024CEF582E4340079
:102C1C00F583E5822EF582E43583F583E493FDEFAD
:102C2C0025E025E02400F582E43400F583E5822ECE
:102C3C00F582E43583F583EDF00EBE04C70FBF08B3
:102C4C00C1E4FFEF9000FE93131313541FFEEF2506
:102C5C00E025E02420F582E43400F583EEF00FBF8C
:102C6C0008E1E4FFEF9000EE931313543FFEEF25C1
:102C7C00E025E02421F582E43400F583EEF00FBF6B
:102C8C0008E2E54754F0C4540FFED394094002E423
:102C9C00FEE4FFEE75F008A424EEF582E43400F5B2
:102CAC0083E5822FF582E43583F583E493C313FD2A
:102CBC00EF25E025E02422F582E43400F583EDF0E5
:102CCC000FBF08CFE547540FFED394094002E4FE32
:102CDC00E4FFEE75F008A424EEF582E43400F583ED
:102CEC00E5822FF582E43583F583E493C313FDEF7E
:102CFC0025E025E02423F582E43400F583EDF00F84
:032D0C00BF08CF2E
:012D0F0022A1
:10300500E4FEE4FFEE25E025E024CEF582E434007D
:10301500F583E5822FF582E43583F583E493FDEEB0
:1030250025E025E02400F582E43400F583E5822FD0
:10303500F582E43583F583EDF00FBF04C70EBE08B6
:10304500C1E52D75F00A84FDE4FEED75F008A424B4
:10305500EEF582E43400F583E5822EF582E43583CE
:10306500F583E493131313541FFCEE25E025E024A8
:1030750020F582E43400F583ECF00EBE08CCE52D96
:1030850075F00A84ADF0E4FEED75F008A424EEF5C4
:1030950082E43400F583E5822EF582E43583F583F9
:1030A500E493C313FCEE25E025E02421F582E43406
:1030B50000F583ECF00EBE08CFE4FEE4FFEE25E05C
:1030C5002476F582E43401F583E5822FF582E43533
:1030D50083F583E493FDEE25E025E02422F582E4E3
:1030E5003400F583E5822FF582E43583F583EDF031
:0830F5000FBF02C90EBE08C3A3
:0130FD0022B0
:1021EE00E4FFE4FEEF25E025E024EEF582E434077B
:1021FE00F583E5822EF582E43583F583E493FDEFD6
:10220E0025E025E02400F582E43400F583E5822EF6
:10221E00F582E43583F583EDF00EBE04C70FBF08DB
:10222E00C1E5505430C4540FFED394024002E4FE74
:10223E00E4FFEE75F008A424EEF582E43400F58395
:10224E00E5822FF582E43583F583E493131313545B
:10225E001FFDEF25E025E02420F582E43400F58310
:10226E00EDF00FBF08CCE550540FFED39409400299
:10227E00E4FEE4FFEE75F008A424EEF582E43400EB
:10228E00F583E5822FF582E43583F583E493C3135A
:10229E00FDEF25E025E02421F582E43400F583ED01
:1022AE00F00FBF08CFE5545470C4540FFED39405FD
:1022BE004002E4FEE4FFEE75F008A424EEF582E49D
:1022CE003400F583E5822FF582E43583F583E493BC
:1022DE00131313541FFDEF25E025E02422F582E4AD
:1022EE003400F583EDF00FBF08CCE554540FFED348
:1022FE0094094002E4FEE4FFEE75F008A424EEF526
:10230E0082E43400F583E5822FF582E43583F5838C
:10231E00E493C313FDEF25E025E02423F582E43496
:10232E0000F583EDF00FBF08CF90002EE04480F053
:07233E00900036E04480F03E
:012345002275
:10271A00E54C6043E4FFE4FEEF25E025E0240EF5F6
:10272A0082E43408F583E5822EF582E43583F58365
:10273A00E493FDEF25E025E02400F582E43400F57A
:10274A0083E5822EF582E43583F583EDF00EBE042F
:10275A00C70FBF08C18041E4FFE4FEEF25E025E092
:10276A00242EF582E43408F583E5822EF582E435D9
:10277A0083F583E493FDEF25E025E02400F582E468
:10278A003400F583E5822EF582E43583F583EDF096
:10279A000EBE04C70FBF08C1E52475F00A84FDE424
:1027AA00FFED75F008A424EEF582E43400F583E524
:1027BA00822FF582E43583F583E493131313541FB0
:1027CA00FCEF25E025E02420F582E43400F583ECD3
:1027DA00F00FBF08CCE52475F00A84ADF0E4FFEDF4
:1027EA0075F008A424EEF582E43400F583E5822F1F
:1027FA00F582E43583F583E493C313FCEF25E025E2
:10280A00E02421F582E43400F583ECF00FBF08CF11
:10281A00E4FFE4FEEF25E02476F582E43401F58353
:10282A00E5822EF582E43583F583E493FDEF25E016
:10283A0025E02422F582E43400F583E5822EF58230
:0F284A00E43583F583EDF00EBE02C90FBF08C35E
:01285900225C
:1038FB00E523B407005031903909F82828730239B1
:10390B001E02392102392402392702392A02392DA4
:10391B00023930022096022E0D022346022C0C0295
:09392B0030050221EE12271A22D8
:101BF900E54B64016014E53C600D123934EF600275
:101C0900800585222D800385212DE54BB40311051F
:101C190034E53464646003021DAFF534754B012269
:101C2900E54B6003021D05E553702B0545E545703D
:101C390002054464E87004E54464036003021DAFCF
:101C4900F544F545755301853954853750F542F505
:101C590025F548021D25E55364016003021DAF0502
:101C690045E5457002054464C07004E544640A60B2
:101C790003021DAFF544F545F553E5406401704095
:101C8900E5466401703AF542F525F548754B0612AB
:101C990039CF0527E527B40303E4F527E5271460C1
:101CA9001114601524026003021DAF7530007531EF
:101CB9001B227530007531102275300075311C22D8
:101CC900E526B40112E52BB4010DE4F542F525F53D
:101CD90048754B050239CFE4F553754B04F541F5C9
:101CE90038053EE53EB40203E4F53EE53E146009DD
:101CF900046003021DAF021DAC021DACE54BB40428
:101D09001E0545E54570020544653D7002E54460E0
:101D190003021DAFF544F545F553F54B023A00E5CD
:101D29004B640570330545E545700205447004E5CB
:101D39004464077071F544F545F553754B04F54155
:101D4900F538053EE53EB40203E4F53EE53E146090
:101D590005047052804D804BE54B6406704805457B
:101D6900E54570020544E5312404FFE43530FEEF12
:101D79007806C333CE33CED8F965457003EE654492
:101D89007024F544F545F553754B04F541F53805CF
:101D99003EE53EB40203E4F53EE53E1460050470F9
:071DA900058000753D40229A
:10084E00E53564017054FFE4FEEF25E025E0243E1B
:10085E00F582E43401F583E5822EF582E43583F5E5
:10086E0083E493FD75F032EFA42440F582E5F03475
:10087E0000F583E5822EF582E43583F583EDF00EE7
:10088E00BE03C675F032EFA42443F582E5F03400C2
:10089E00F583E4F00FBF08AF806FE4FFE4FEEF7561
:1008AE00F003A4245EF582E43401F583E5822EF58F
:1008BE0082E43583F583E493FD75F032EFA4244092
:1008CE00F582E5F03400F583E5822EF582E435837A
:1008DE00F583EDF00EBE03C6E53575F008A424EEE3
:1008EE00F582E43400F583E5822FF582E43583F555
:1008FE0083E493FD75F032EFA42443F582E5F034E2
:10090E0000F583EDF00FBF0893E5265430C4540F65
:10091E00FDE4FFED75F008A424EEF582E43400F555
:10092E0083E5822FF582E43583F583E493FC75F03D
:10093E0032EFA42446F582E5F03400F583ECF00F97
:10094E00BF08D0E526540FFDD394094002E4FDE420
:10095E00FFED75F008A424EEF582E43400F583E58E
:10096E00822FF582E43583F583E493FC75F032EF44
:10097E00A42447F582E5F03400F583ECF00FBF08B0
:10098E00D0E52B5410C4540FFDE4FFED75F008A410
:10099E0024EEF582E43400F583E5822FF582E4350A
:1009AE0083F583E493FC75F032EFA42449F582E5D8
:1009BE00F03400F583ECF00FBF08D0E52B540FFD9B
:1009CE00D394094002E4FDE4FFED75F008A424EE93
:1009DE00F582E43400F583E5822FF582E43583F564
:1009EE0083E493FC75F032EFA4244AF582E5F034EB
:1009FE0000F583ECF00FBF08D0E52E54F0C4540F71
:100A0E00FDD394094002E4FDE4FFED75F008A42443
:100A1E00EEF582E43400F583E5822FF582E435832A
:100A2E00F583E493FC75F032EFA4244EF582E5F0E5
:100A3E003400F583ECF00FBF08D0E52E540FFDD334
:100A4E0094094002E4FDE4FFED75F008A424EEF5F0
:100A5E0082E43400F583E5822FF582E43583F58355
:100A6E00E493FC75F032EFA4244FF582E5F03400E8
:100A7E00F583ECF00FBF08D0E5405430C4540FFDA1
:100A8E00E4FFED75F008A424EEF582E43400F5835E
:100A9E00E5822FF582E43583F583E493FC75F0321D
:100AAE00EFA42457F582E5F03400F583ECF00FBF88
:100ABE0008D0E540540FFDD394094002E4FDE4FF55
:100ACE00ED75F008A424EEF582E43400F583E5829A
:100ADE002FF582E43583F583E493FC75F032EFA4B1
:100AEE002458F582E5F03400F583ECF00FBF08D002
:100AFE00E5465410C4540FFDE4FFED75F008A42430
:100B0E00EEF582E43400F583E5822FF582E4358339
:100B1E00F583E493FC75F032EFA4245AF582E5F0E8
:100B2E003400F583ECF00FBF08D0E546540FFDD32B
:100B3E0094094002E4FDE4FFED75F008A424EEF5FF
:100B4E0082E43400F583E5822FF582E43583F58364
:100B5E00E493FC75F032EFA4245BF582E5F03400EB
:100B6E00F583ECF00FBF08D0E54D54F0C4540FFDE3
:100B7E00D394094002E4FDE4FFED75F008A424EEE1
:100B8E00F582E43400F583E5822FF582E43583F5B2
:100B9E0083E493FC75F032EFA4245FF582E5F03424
:100BAE0000F583ECF00FBF08D0E54D540FFDD39444
:100BBE00094002E4FDE4FFED75F008A424EEF58291
:100BCE00E43400F583E5822FF582E43583F583E482
:100BDE0093FC75F032EFA42460F582E5F03400F555
:100BEE0083ECF00FBF08D0E54975F00A84FDE4FFF1
:100BFE00ED75F008A424EEF582E43400F583E58269
:100C0E002FF582E43583F583E493FC75F032EFA47F
:100C1E002463F582E5F03400F583ECF00FBF08D0C5
:100C2E00E54975F00A84ADF0E4FFED75F008A424F3
:100C3E00EEF582E43400F583E5822FF582E4358308
:100C4E00F583E493FC75F032EFA42464F582E5F0AD
:0A0C5E003400F583ECF00FBF08D05E
:010C68002269
:101F2B000541E54164046003022095F541E5375412
:101F3B0030C4540FFFE4FDEFC454F0240EF582E4DB
:101F4B003400F583E5822DF582E43583F583E49344
:101F5B00FCED25E025E02400F582E43400F583EC6C
:101F6B00F00DBD10D2E537540FFFE4FDEFC454F074
:101F7B00240EF582E43400F583E5822DF582E435F9
:101F8B0083F583E49325E0FCED25E025E02401F5C2
:101F9B0082E43400F583ECF00DBD10D0E5395470BC
:101FAB00C4540FFFE4FDEFC454F0240EF582E43467
:101FBB0000F583E5822DF582E43583F583E493C345
:101FCB0013FCED25E025E02402F582E43400F583D3
:101FDB00ECF00DBD10D0E539540FFFE4FDEFC45408
:101FEB00F0240EF582E43400F583E5822DF582E4CE
:101FFB003583F583E493FCED25E025E02403F5829E
:10200B00E43400F583ECF00DBD10D2E54A65326087
:10201B000F85324AE53B6005E4F53B8003753B01D8
:10202B007F0112344CE53E14602E04705BAD38ED2D
:10203B00C394105053E4FEED25E025E02400F58217
:10204B00E43400F583E5822EF582E43583F583E4F1
:10205B00F00EBE04E20D80D7E4FDC374109538FF7B
:10206B00EDC39F5023E4FEED25E025E02400F5822F
:10207B00E43400F583E5822EF582E43583F583E4C1
:0A208B00F00EBE04E20D80D205380D
:012095002228
:1031F6000548E548640860030232EDF548FFE4FE41
:10320600EF25E025E02400F582E43400F583E5822D
:103216002EF582E43583F583E025E0F0EF25E02501
:10322600E02401F582E43400F583E5822EF582E49C
:103236003583F583E030E71CEF25E025E02400F533
:1032460082E43400F583E5822EF582E43583F58346
:10325600E04401F00EBE03A8EF25E025E02403F5C7
:1032660082E43400F583E025E0F074D82FF582E49B
:103276003401F583E030E712EF25E025E02403F57D
:1032860082E43400F583E04401F074D82FF582E43B
:103296003401F583E025E0F00FEF6410600302329D
:1032A60004E5257038E542C39418502FE4FF75F005
:1032B60018EFA424FEF582E5F03401F583E58225B6
:1032C60042F582E43583F583E493FE74D82FF582C4
:1032D600E43401F583EEF00FBF10D305420525E572
:0732E60025B40803E4F525FF
:0132ED0022BE
:101DB0000548E54864086003021F2AF548FFE4FE71
:101DC000EF25E025E02400F582E43400F583E58288
:101DD0002EF582E43583F583E025E0F0EF25E0255C
:101DE000E02401F582E43400F583E5822EF582E4F7
:101DF0003583F583E030E71CEF25E025E02400F58E
:101E000082E43400F583E5822EF582E43583F583A0
:101E1000E04401F00EBE03A8EF25E025E02403F521
:101E200082E43400F583E025E0F074D82FF582E4F5
:101E30003401F583E030E712EF25E025E02403F5D7
:101E400082E43400F583E04401F074D82FF582E495
:101E50003401F583E025E0F00FEF64106003021D0C
:101E6000BEE5256003021F20E52714604514607855
:101E700024026003021F1EE542C3941B4003021F9D
:101E80001EE4FF75F01BEFA4247EF582E5F0340319
:101E9000F583E5822542F582E43583F583E493FEFC
:101EA00074D82FF582E43401F583EEF00FBF10D320
:101EB000806CE542C394105065E4FFEFC454F024F5
:101EC000EEF582E43406F583E5822542F582E435B9
:101ED00083F583E493FE74D82FF582E43401F5830F
:101EE000EEF00FBF10D58036E542C3941C502FE4AE
:101EF000FF75F01CEFA4242EF582E5F03405F58380
:101F0000E5822542F582E43583F583E493FE74D8B7
:101F10002FF582E43401F583EEF00FBF10D30542B4
:0A1F20000525E525B40803E4F525C6
:011F2A002294
:03000B000217F8E1
:1017F800C0E0C0F0C083C082C0D075D000C000C0B7
:1018080001C002C003C004C005C006C007758CC073
:10181800758A80052CE52CB40A03752C00E52CB4D8
:101828000A0040030219EA901836F82828730218AB
:101838005402186102186E0218C80218D80218EA71
:1018480002194F02197502199B0219C1C291123C63
:101858000C123A61D2910219EAC291123C0C123967
:101868009DD2910219EAC291123C0C1234BEAF26E5
:10187800123B9EAC07AF2B123B9EAD07AF2E123B1F
:101888009EAB07750F007510007511407512007535
:10189800130075144675150075160075174DAF04BD
:1018A8001215E3AF40123B698F40AF46123B698F78
:1018B80046AF4D123B698F4D12084ED2910219EA7C
:1018C800C291123C0C123BE8121BF9D2910219EAA0
:1018D800C291123C0CE553B40103122F0AD29102B3
:1018E80019EAC291123C0CE54B7014E553700512CD
:1018F80030FE8045E5536401703F12285A803AE56E
:101908004BB401051238FB8030E54BB402051238A0
:10191800048026E54BB40305123846801CE54BB419
:101928000405121F2B8012E54BB405051231F68011
:1019380008E54BB40603121DB07B017A007900124A
:101948001325D2910219EAC291123A8BE52D64014E
:10195800603FE52DD3944640067FBC7E028009E5B2
:101968002D75F00AA4FFAEF0123A318070C29112C0
:101978003AB4E52D64016019E52DD3944640067FFD
:10198800BC7E028009E52D75F00AA4FFAEF0123A7C
:1019980031804AC291123ADDE52D64016019E52DC6
:1019A800D3944640067FBC7E028009E52D75F00A77
:1019B800A4FFAEF0123A318024C291123B06E52D05
:1019C80064016019E52DD3944640067FBC7E0280F1
:1019D80009E52D75F00AA4FFAEF0123A31123C0C5D
:1019E800D291D007D006D005D004D003D002D001C0
:0D19F800D000D0D0D082D083D0F0D0E0322B
:10000E0000003C7E66666666666666667E3C00003E
:10001E0000000C1C3C0C0C0C0C0C0C0C1E1E0000DE
:10002E0000003C7E6606060E1C3870607E7E000068
:10003E0000003C7E6606061C1C0606667E3C000022
:10004E000000040C1C3C6C6C6C7E7E0C0C0C0000D6
:10005E0000007E7E60607C7E060606667E3C0000AA
:10006E0000003C7E6660607C7E6666667E3C0000BC
:10007E0000007E7E06060C18303030303030000026
:10008E0000003C7E6666663C3C6666667E3C000012
:10009E0000003C7E6666667E3E0606667E3C00007E
:1000AE007088BE008888A0008145200071C53E0082
:1000BE00094520008A22200072223E000000000026
:1000CE0039F7D178450111444101114439F11178C4
:1000DE00050111404501114039F10E4000000000AC
:1000EE0070888888888870002060A0202020F80002
:1000FE00708808102040F80070880830088870005A
:10010E0010305090F8101000F880F0080888700039
:10011E00708880F088887000F808102040404000F9
:10012E007088887088887000708888780888700059
:10013E000E10800011188000101480001012800024
:10014E0010118000111080000E10800000000000C1
:10015E00F9002021004021001021E230211220213F
:10016E0012202111C0000000620092009400640071
:10017E0009800A40124011800000000000000000BB
:10018E00000000000080701C018088228880882278
:10019E00888088225080882250808822208489225C
:1001AE0021C4711C000000000000000000000000CF
:1001BE0000000000000000001030206040C08000F1
:1001CE0020040040500420402004074253C42870ED
:1001DE00FAA428488AA4284A8AA7A7480000000043
:1001EE006380944094006400040004400380000087
:1001FE0000FC00707FC1FF00F0001E001FC0F80061
:10020E00007803F80703FF000FFCC0F1FFE7FF873C
:10021E00F000FE787FC7F9D803F80FF80F0FFF80B4
:10022E003F9DC1F9FFF7FFCFE001FEF8FFCFFBF8CE
:10023E0007F01FF81F9FFF807C3B83F38C7E31FFFE
:10024E00E603EDF9E31F37B81FF33C603F3CC38074
:10025E00787787701E7079FDDE038FF1C01C7FB832
:10026E001EEF38007739C70060EF0F783DE0F7B129
:10027E00BC031FE0FF00FF7018DE1FE0F783FE00D7
:10028E0001FE3FF8FFE3FF8378001FE03F01FEF021
:10029E0001BC07E3FF8FE0001FFFFFF1FF87FE07A2
:1002AE00F8003DC0F003FEE003FC1E07FF1F000038
:1002BE001FFF18F0FE03F80FF0003FDBC003FDE058
:1002CE0007F878018F1FC0001F3830E1C007001FEC
:1002DE00E0007BB78187FFC00FF0F0330E0FF80000
:1002EE000E7070F18006001EDC0073E70F87DF8052
:1002FE000F6EE1F70F1CFE000C60E0E3800E0001B4
:10030E00F800F7C7FF071F0000FCFFEE0E3C3E0093
:10031E001C00C003000C0001F0006383F80006000F
:10032E0000F87F0C00300E000000000000000003FB
:10033E00C00000000000000001E00000000000000E
:10034E00000000000000000380000000000000001C
:10035E0001C00000000000000000000000000003CB
:10036E0000000000000000000180000000000000FE
:10037E00000000001E00000000003C000000000015
:10038E00000021000000000000F000000000001E30
:10039E0000000000003C380000000000001F0000BC
:1003AE0000000000F0000000000038000000000017
:1003BE000E380000000000000E000000000001C713
:1003CE000000000000000000000000001800000007
:1003DE000000000000000000000007000FC3EFCF78
:1003EE00F3C1F803C0F7F3FF87C1FE01F0F80E0367
:1003FE00C0F01E0783F37E1FF7EFEFF3C3FE07E196
:10040E00F7F1EFC7C3FE01F8F81F07E1F03F0F8FBA
:10041E00FEFE38FBC7C781871F01E1F3C0C3E38728
:10042E008F007C701F01E1F00F0F9FFC7C787BC763
:10043E00C7818F0F01F3E3C0C3F18F07007E301F1A
:10044E0081F3E00F9F1E7C3C7833C7C7818F060176
:10045E00F3E3C0C3FD8F06007FB03F81F3E00F9F33
:10046E003C3E3CF803FFC7819F0001FFE3C0C3FF82
:10047E009F00007FF037C1FFE00FFF3E3E3CF803C8
:10048E00FFC7819F0001FFE3C0C37F9F1F806FF0F6
:10049E0063C1FFE00FFF3E1E3C7C03C7C7C18F80C8
:1004AE0001BDE3E0C33F8F3F8067F07FC1BDE00D2C
:1004BE00EF3E1E3C7E13C7C7C38FC203BDE3E1C32D
:1004CE001F8F8F0063F0FFE3BDE01DEF1F3E3C3F2B
:1004DE00F3C7C3FF87FE0399F1FFC30787CE006002
:1004EE00F0C1E399F01CCF9FFC7C1FF7EFE3FF03F5
:1004FE00FE03C9F1FF878383FC00F073E7FBC9F0AD
:10050E001E4F8FF87E0F87EFC0FC01F007C1F07E03
:10051E00078181F800F033E7F7C1F03E0F83E07EEC
:10052E0000000000000000000000000000000000BD
:10053E000000000000000700E000000000000000C6
:10054E00000000000000000000000000000000009D
:10055E0000000700E0000000070F9E03EFDF3E07DC
:10056E000F9E1FC00FFBE7DFFCF7CF80F9FF9E1E2B
:10057E0047CF0FE007078C01C70E1C07078C31C051
:10058E000DD9C3873C63870070E70C7383C618E0F0
:10059E000F87CC01C60E1C0F87CC704019CDC387B8
:1005AE003E63870030C70C61C3E638200F85CC014F
:1005BE00CC0E1C0F85CCE04011C5C3872E6387007F
:1005CE0038C70CE1C2E670201FC4EC01DC0FFC1F23
:1005DE00C4ECE00001C1FF872763FF0039870CE1FF
:1005EE00C276700019C4FC01FE0E1C19C4FCE1F0A9
:1005FE0001C1C38727E387001D870CE1C27E70F817
:10060E001FC47C01CE0E1C1FC47CE0E001C1C38759
:10061E0023E387001F870CE1C23E707030E47C013B
:10062E00CF0E1C30E47CE0E001C1C38723E38700DA
:10063E001F070CE1C23E707030E43C01C70E1C3047
:10064E00E43C70E001C1C38721E387000F070C6112
:10065E00821E387070F41C01C78E1C70F41C71E081
:10066E0001C1C38720E387000E039873020E38F092
:10067E00F9FE1C03EFDF3EF9FE1C1F6007F3E7DFF8
:10068E00F0E7CF800E01F01E070E0FB00000000045
:10069E00000000000000002000000000000000002C
:1006AE00000000000000001000000000000000002C
:1006BE00000000000000000700000000000000071E
:1006CE00000000000000000000000000000000001C
:1006DE0000000007000000000000000700000000FE
:1006EE000000000000000003000000000030008049
:1006FE000000000000000003000000000030018038
:10070E0000000000000000030000000000300200A6
:10071E00F8E060707003CF0C03839E3CF0C078301D
:10072E0030406038200C260401C10C18604018704F
:10073E0030C0E03C200C060401E10C1860400C6057
:10074E001980B02E200E060401710C1860400CC0EA
:10075E00198130272007C60401390FF8604007C001
:10076E001F013823A001F604011D0C186040030080
:10077E000F01F821E0003604010F0C186040030051
:10078E000F021C20E008360401070C18604003001D
:10079E0006020C20E00C670801070C18708003009D
:1007AE00060F1E706007C1F003831E3C1F000780FA
:1007BE00000000000000000000000000000000002B
:1007CE00000060000000006000000000000000005B
:1007DE00000060000000006000000000000000004B
:1007EE00FBA2F0032136810F212A83BF2122E3FED3
:1007FE00212281FC212281F823A2F0F000000000CA
:10080E003884000044C4000082A4000082940000DA
:10081E00828C000044840000388400000000000038
:10082E0038FBE000448200008282000082F3C000A8
:10083E008282000044820000388200000000000026
:10105500040C1E0005011D0004021E0005031D00F1
:1010650006041E0007051D0008061D000A061E00D1
:101075000B071D000C081E000D091D000E0A1E00A1
:101085000F0B1E00100C1E000E011D0010021E008D
:1010950010031D0012041E0012051D0014061D007C
:1010A50016071E0016081D0018091D00190A1E0046
:1010B5001A0B1E001B0C1E0019011D001B021E0031
:1010C5001B031E001C041D001D051E0001071D003D
:1010D50003081E0003091D00050A1D00060B1E005E
:1010E500070C1E0008011D0008021E0009031E0052
:1010F50009041E000A041D000B051E000C061D0038
:101105000E071D000F081E0010091D00110A1D0005
:10111500130B1E00140C1E0012011D0014021E00EC
:1011250014031E0015041D0016051E0017061D00DC
:1011350019071E0019081D001B091E001B0A1D00AA
:101145001D0B1E0001011E001D011E0001031E00D6
:1011550001041D0003051E0003061E0004071D00F3
:1011650006081E0006091D00080A1E00080B1D00C2
:101175000A0C1E000B011D000A021E000B021D00B9
:101185000C031D000E041E000E051E000F061D009B
:1011950011071E0011081E0012091D00130A1E006A
:1011A500140B1D00160C1E0015011D0017021E0054
:1011B50017031D0019041D001A051E001B061D003E
:1011C5001D071E001D081E00010A1E00010B1E0042
:1011D500020C1D0004011E0002021D0004031E0076
:1011E50004041D0006051D0007061E0008061D0057
:1011F5000A071E000A081D000C091E000C0A1E0025
:101205000D0B1E000E0C1D000D011E000E021D0013
:101215000F031E0010041D0011051D0013061E00FE
:1012250014071D0015081D0017091E00170A1E00CA
:10123500180B1E00190C1D0018011E0019021E00B6
:1012450019031D001B041E001B051D001D061D00A6
:1012550001081D0002091D00040A1E00040B1E00E2
:10126500050C1D0007011E0006021E0007031E00D7
:1012750007041D0009051E0009051D000B061D00BC
:101285000D071E000D081D000F091D00100A1E0088
:10129500110B1E00120C1D0011011E0012021E0072
:1012A50012031D0014041E0014051D0016061E0061
:1012B50017071D0018081E0019091D001A0A1D0030
:1012C5001C0B1E001D0C1D001C011E001D021E0016
:1012D5001D031D0001051E0001061D0003071E005C
:1012E50004081D0005091E00060A1D00070B1E0047
:1012F500080C1E000A011D0009021E000A031D003C
:101305000B031E000C041D000C051D000E061E001F
:101315000F071D000F081D0011091E00110A1E00F0
:0415E3008D0D8B0ED1
:1015E700AB0FAA10A911EF1224D6AB12AA13A91494
:1015F700E50D1224D6AB15AA16A917E50E1224D6A7
:10160700E50E6416705AE50DB40128EFD394024035
:1016170022EF24FEAB0FAA10A9111224D6AB12AAEF
:1016270013A914740C1224D6AB15AA16A91774158E
:101637000217F4E50DB40328EFD394024022EF24F8
:10164700FEAB0FAA10A9111224D6AB12AA13A91424
:1016570074021224D6AB15AA16A91774160217F42A
:10166700E50EB4182DE50DB40A28EFD394024022F5
:10167700EF24FEAB0FAA10A9111224D6AB12AA139E
:10168700A91474091224D6AB15AA16A9177418023F
:1016970017F4E50EB41B2CE50DB40827EFD394011E
:1016A7004021EF14AB0FAA10A9111224D6AB12AA2E
:1016B70013A91474071224D6AB15AA16A917741BFD
:1016C7000217F4E50EB41E2CE50DB40527EFD394ED
:1016D700014021EF14AB0FAA10A9111224D6AB12A7
:1016E700AA13A91474041224D6AB15AA16A9177441
:1016F7001E0217F4E50EC3941150030217F7E50E07
:10170700D3941E40030217F7E50E24EF75F00CA4DF
:10171700F51AEF14F518E51A250DFFE433FEEF78F7
:1017270002C333CE33CED8F9FF2451F58274103E6D
:10173700F583E493FD74532FF58274103EF583E42B
:1017470093C39DF519E518D395195026E5182DABC8
:101757000FAA10A9111224D6E51A250DFFE433FEAE
:10176700EF7802C333CE33CED8F92452F582741002
:101777008054C3E5189519FFBF1E25AB0FAA10A902
:101787001174011224D6E51A250DFFE433FEEF7814
:1017970002C333CE33CED8F9245AF582741080268B
:1017A700C3E5189519AB0FAA10A9111224D6E51A8B
:1017B700250DFFE433FEEF7802C333CE33CED8F9DD
:1017C7002456F58274103EF583E493AB12AA13A94D
:1017D700141224D6AB12AA13A914122490FFE50DF4
:1017E700C39F500CE50E14AB15AA16A9171224D6E1
:0117F70022CF
:1033CC00023BAFE493A3F8E493A34003F68001F22D
:1033DC0008DFF48029E493A3F85407240CC8C33302
:1033EC00C4540F4420C8834004F456800146F6DFD1
:1033FC00E4800B0102040810204080901A05E47E42
:10340C00019360BCA3FF543F30E509541FFEE493C5
:10341C00A360010ECF54C025E060A840B8E493A38C
:10342C00FAE493A3F8E493A3C8C582C8CAC583CAB7
:10343C00F0A3C8C582C8CAC583CADFE9DEE780BE6F
:011BF80000EC
:10249000BB010689828A83E0225002E722BBFE024A
:0924A000E32289828A83E493227D
:1024A900BB010CE58229F582E5833AF583E02250E8
:1024B90006E92582F8E622BBFE06E92582F8E22232
:0D24C900E58229F582E5833AF583E493224C
:1024D600BB010689828A83F0225002F722BBFE01E5
:0224E600F322DF
:1024E80075F008758200EF2FFFEE33FECD33CDCCAB
:1024F80033CCC58233C5829BED9AEC99E58298402E
:102508000CF582EE9BFEED9AFDEC99FC0FD5F0D60A
:10251800E4CEFBE4CDFAE4CCF9A88222B800C1B934
:102528000059BA002DEC8BF084CFCECDFCE5F0CB72
:10253800F97818EF2FFFEE33FEED33FDEC33FCEBAB
:1025480033FB10D703994004EB99FB0FD8E5E4F966
:10255800FA227818EF2FFFEE33FEED33FDEC33FC53
:10256800C933C910D7059BE99A4007EC9BFCE99A47
:10257800F90FD8E0E4C9FAE4CCFB2275F010EF2F8C
:10258800FFEE33FEED33FDCC33CCC833C810D7078C
:102598009BEC9AE899400AED9BFDEC9AFCE899F8C7
:0E25A8000FD5F0DAE4CDFBE4CCFAE4C8F9225A
:1025B600EB9FF5F0EA9E42F0E99D42F0E89C45F07B
:0125C60022F2
:1025C700E8600FECC313FCED13FDEE13FEEF13FFF2
:0325D700D8F12216
:00000001FF
